{
  "_format": "hh-sol-artifact-1",
  "contractName": "UniqueMarketplace",
  "sourceName": "contracts/UniqueMarketplace.sol",
  "abi": [
    {
      "anonymous": false,
      "inputs": [
        {
          "indexed": true,
          "internalType": "uint256",
          "name": "auctionId",
          "type": "uint256"
        },
        {
          "indexed": true,
          "internalType": "address",
          "name": "seller",
          "type": "address"
        },
        {
          "indexed": false,
          "internalType": "uint256",
          "name": "minBid",
          "type": "uint256"
        },
        {
          "indexed": false,
          "internalType": "uint256",
          "name": "commitEndTime",
          "type": "uint256"
        },
        {
          "indexed": false,
          "internalType": "uint256",
          "name": "revealEndTime",
          "type": "uint256"
        }
      ],
      "name": "AuctionCreated",
      "type": "event"
    },
    {
      "anonymous": false,
      "inputs": [
        {
          "indexed": true,
          "internalType": "uint256",
          "name": "auctionId",
          "type": "uint256"
        },
        {
          "indexed": true,
          "internalType": "address",
          "name": "winner",
          "type": "address"
        },
        {
          "indexed": false,
          "internalType": "uint256",
          "name": "winningAmount",
          "type": "uint256"
        }
      ],
      "name": "AuctionSettled",
      "type": "event"
    },
    {
      "anonymous": false,
      "inputs": [
        {
          "indexed": true,
          "internalType": "uint256",
          "name": "auctionId",
          "type": "uint256"
        },
        {
          "indexed": true,
          "internalType": "address",
          "name": "bidder",
          "type": "address"
        }
      ],
      "name": "BidCommitted",
      "type": "event"
    },
    {
      "anonymous": false,
      "inputs": [
        {
          "indexed": true,
          "internalType": "uint256",
          "name": "auctionId",
          "type": "uint256"
        },
        {
          "indexed": true,
          "internalType": "address",
          "name": "bidder",
          "type": "address"
        },
        {
          "indexed": false,
          "internalType": "uint256",
          "name": "amount",
          "type": "uint256"
        }
      ],
      "name": "BidRevealed",
      "type": "event"
    },
    {
      "inputs": [],
      "name": "auctionCount",
      "outputs": [
        {
          "internalType": "uint256",
          "name": "",
          "type": "uint256"
        }
      ],
      "stateMutability": "view",
      "type": "function"
    },
    {
      "inputs": [
        {
          "internalType": "uint256",
          "name": "",
          "type": "uint256"
        },
        {
          "internalType": "uint256",
          "name": "",
          "type": "uint256"
        }
      ],
      "name": "auctionRevealedBidders",
      "outputs": [
        {
          "internalType": "address",
          "name": "",
          "type": "address"
        }
      ],
      "stateMutability": "view",
      "type": "function"
    },
    {
      "inputs": [
        {
          "internalType": "uint256",
          "name": "",
          "type": "uint256"
        }
      ],
      "name": "auctions",
      "outputs": [
        {
          "internalType": "address",
          "name": "seller",
          "type": "address"
        },
        {
          "internalType": "uint256",
          "name": "minBid",
          "type": "uint256"
        },
        {
          "internalType": "uint256",
          "name": "commitEndTime",
          "type": "uint256"
        },
        {
          "internalType": "uint256",
          "name": "revealEndTime",
          "type": "uint256"
        },
        {
          "internalType": "bool",
          "name": "settled",
          "type": "bool"
        },
        {
          "internalType": "address",
          "name": "highestUniqueBidder",
          "type": "address"
        },
        {
          "internalType": "uint256",
          "name": "highestUniqueBid",
          "type": "uint256"
        }
      ],
      "stateMutability": "view",
      "type": "function"
    },
    {
      "inputs": [
        {
          "internalType": "uint256",
          "name": "",
          "type": "uint256"
        },
        {
          "internalType": "uint256",
          "name": "",
          "type": "uint256"
        }
      ],
      "name": "bidCounts",
      "outputs": [
        {
          "internalType": "uint256",
          "name": "",
          "type": "uint256"
        }
      ],
      "stateMutability": "view",
      "type": "function"
    },
    {
      "inputs": [
        {
          "internalType": "uint256",
          "name": "_auctionId",
          "type": "uint256"
        },
        {
          "internalType": "bytes32",
          "name": "_bidHash",
          "type": "bytes32"
        }
      ],
      "name": "commitBid",
      "outputs": [],
      "stateMutability": "payable",
      "type": "function"
    },
    {
      "inputs": [
        {
          "internalType": "uint256",
          "name": "",
          "type": "uint256"
        },
        {
          "internalType": "address",
          "name": "",
          "type": "address"
        }
      ],
      "name": "commitments",
      "outputs": [
        {
          "internalType": "bytes32",
          "name": "",
          "type": "bytes32"
        }
      ],
      "stateMutability": "view",
      "type": "function"
    },
    {
      "inputs": [
        {
          "internalType": "uint256",
          "name": "_minBid",
          "type": "uint256"
        },
        {
          "internalType": "uint256",
          "name": "_commitDuration",
          "type": "uint256"
        },
        {
          "internalType": "uint256",
          "name": "_revealDuration",
          "type": "uint256"
        }
      ],
      "name": "createAuction",
      "outputs": [
        {
          "internalType": "uint256",
          "name": "",
          "type": "uint256"
        }
      ],
      "stateMutability": "nonpayable",
      "type": "function"
    },
    {
      "inputs": [
        {
          "internalType": "uint256",
          "name": "",
          "type": "uint256"
        },
        {
          "internalType": "address",
          "name": "",
          "type": "address"
        }
      ],
      "name": "deposits",
      "outputs": [
        {
          "internalType": "uint256",
          "name": "",
          "type": "uint256"
        }
      ],
      "stateMutability": "view",
      "type": "function"
    },
    {
      "inputs": [
        {
          "internalType": "uint256",
          "name": "",
          "type": "uint256"
        },
        {
          "internalType": "address",
          "name": "",
          "type": "address"
        }
      ],
      "name": "hasRevealed",
      "outputs": [
        {
          "internalType": "bool",
          "name": "",
          "type": "bool"
        }
      ],
      "stateMutability": "view",
      "type": "function"
    },
    {
      "inputs": [
        {
          "internalType": "uint256",
          "name": "_auctionId",
          "type": "uint256"
        },
        {
          "internalType": "uint256",
          "name": "_amount",
          "type": "uint256"
        },
        {
          "internalType": "string",
          "name": "_secret",
          "type": "string"
        }
      ],
      "name": "revealBid",
      "outputs": [],
      "stateMutability": "nonpayable",
      "type": "function"
    },
    {
      "inputs": [
        {
          "internalType": "uint256",
          "name": "",
          "type": "uint256"
        },
        {
          "internalType": "address",
          "name": "",
          "type": "address"
        }
      ],
      "name": "revealedBids",
      "outputs": [
        {
          "internalType": "uint256",
          "name": "",
          "type": "uint256"
        }
      ],
      "stateMutability": "view",
      "type": "function"
    },
    {
      "inputs": [
        {
          "internalType": "uint256",
          "name": "_auctionId",
          "type": "uint256"
        }
      ],
      "name": "settleAuction",
      "outputs": [],
      "stateMutability": "nonpayable",
      "type": "function"
    }
  ],
  "bytecode": "0x608060405234801561001057600080fd5b506121e6806100206000396000f3fe6080604052600436106100a75760003560e01c80639468cb61116100645780639468cb61146101fa578063a489d5d714610216578063cca846541461023f578063cda4beef1461027c578063d1f59ea3146102b9578063e90d4c06146102f6576100a7565b806316b5551d146100ac5780632ad71573146100e95780632d432f50146101145780632e9936111461015157806353a58de11461017a578063571a26a0146101b7575b600080fd5b3480156100b857600080fd5b506100d360048036038101906100ce9190611524565b610333565b6040516100e0919061157f565b60405180910390f35b3480156100f557600080fd5b506100fe610362565b60405161010b91906115a9565b60405180910390f35b34801561012057600080fd5b5061013b600480360381019061013691906115c4565b610368565b60405161014891906115a9565b60405180910390f35b34801561015d57600080fd5b5061017860048036038101906101739190611604565b61038d565b005b34801561018657600080fd5b506101a1600480360381019061019c9190611524565b610a14565b6040516101ae91906115a9565b60405180910390f35b3480156101c357600080fd5b506101de60048036038101906101d99190611604565b610a39565b6040516101f19796959493929190611640565b60405180910390f35b610214600480360381019061020f91906116e5565b610ac8565b005b34801561022257600080fd5b5061023d6004803603810190610238919061186b565b610ced565b005b34801561024b57600080fd5b5061026660048036038101906102619190611524565b6111f7565b60405161027391906115a9565b60405180910390f35b34801561028857600080fd5b506102a3600480360381019061029e91906118da565b61121c565b6040516102b091906115a9565b60405180910390f35b3480156102c557600080fd5b506102e060048036038101906102db91906115c4565b611409565b6040516102ed919061192d565b60405180910390f35b34801561030257600080fd5b5061031d60048036038101906103189190611524565b611457565b60405161032a9190611957565b60405180910390f35b60076020528160005260406000206020528060005260406000206000915091509054906101000a900460ff1681565b60005481565b6006602052816000526040600020602052806000526040600020600091509150505481565b80600160008281526020019081526020016000206003015442116103e6576040517f08c379a00000000000000000000000000000000000000000000000000000000081526004016103dd906119cf565b60405180910390fd5b60006001600084815260200190815260200160002090508060040160009054906101000a900460ff161561044f576040517f08c379a000000000000000000000000000000000000000000000000000000000815260040161044690611a3b565b60405180910390fd5b60018160040160006101000a81548160ff02191690831515021790555060006005600085815260200190815260200160002080548060200260200160405190810160405280929190818152602001828054801561050157602002820191906000526020600020905b8160009054906101000a900473ffffffffffffffffffffffffffffffffffffffff1673ffffffffffffffffffffffffffffffffffffffff16815260200190600101908083116104b7575b5050505050905060008060005b83518110156105d657600084828151811061052c5761052b611a5b565b5b602002602001015190506000600460008a815260200190815260200160002060008373ffffffffffffffffffffffffffffffffffffffff1673ffffffffffffffffffffffffffffffffffffffff1681526020019081526020016000205490506001600660008b8152602001908152602001600020600083815260200190815260200160002054036105c757848111156105c6578094508193505b5b5050808060010191505061050e565b50818460050181905550808460040160016101000a81548173ffffffffffffffffffffffffffffffffffffffff021916908373ffffffffffffffffffffffffffffffffffffffff16021790555060005b83518110156108b657600084828151811061064457610643611a5b565b5b602002602001015190506000600360008a815260200190815260200160002060008373ffffffffffffffffffffffffffffffffffffffff1673ffffffffffffffffffffffffffffffffffffffff1681526020019081526020016000205490506000600360008b815260200190815260200160002060008473ffffffffffffffffffffffffffffffffffffffff1673ffffffffffffffffffffffffffffffffffffffff168152602001908152602001600020819055508373ffffffffffffffffffffffffffffffffffffffff168273ffffffffffffffffffffffffffffffffffffffff16036107f9576000858261073a9190611ab9565b905060008111156107f35760008373ffffffffffffffffffffffffffffffffffffffff168260405161076b90611b1e565b60006040518083038185875af1925050503d80600081146107a8576040519150601f19603f3d011682016040523d82523d6000602084013e6107ad565b606091505b50509050806107f1576040517f08c379a00000000000000000000000000000000000000000000000000000000081526004016107e890611b7f565b60405180910390fd5b505b506108a7565b60008273ffffffffffffffffffffffffffffffffffffffff168260405161081f90611b1e565b60006040518083038185875af1925050503d806000811461085c576040519150601f19603f3d011682016040523d82523d6000602084013e610861565b606091505b50509050806108a5576040517f08c379a000000000000000000000000000000000000000000000000000000000815260040161089c90611b7f565b60405180910390fd5b505b50508080600101915050610626565b50600073ffffffffffffffffffffffffffffffffffffffff168173ffffffffffffffffffffffffffffffffffffffff16146109bd5760008460000160009054906101000a900473ffffffffffffffffffffffffffffffffffffffff1673ffffffffffffffffffffffffffffffffffffffff168360405161093590611b1e565b60006040518083038185875af1925050503d8060008114610972576040519150601f19603f3d011682016040523d82523d6000602084013e610977565b606091505b50509050806109bb576040517f08c379a00000000000000000000000000000000000000000000000000000000081526004016109b290611beb565b60405180910390fd5b505b8073ffffffffffffffffffffffffffffffffffffffff16867fc9f72b276a388619c6d185d146697036241880c36654b1a3ffdad07c24038d9984604051610a0491906115a9565b60405180910390a3505050505050565b6003602052816000526040600020602052806000526040600020600091509150505481565b60016020528060005260406000206000915090508060000160009054906101000a900473ffffffffffffffffffffffffffffffffffffffff16908060010154908060020154908060030154908060040160009054906101000a900460ff16908060040160019054906101000a900473ffffffffffffffffffffffffffffffffffffffff16908060050154905087565b816001600082815260200190815260200160002060020154421115610b22576040517f08c379a0000000000000000000000000000000000000000000000000000000008152600401610b1990611c57565b60405180910390fd5b60003411610b65576040517f08c379a0000000000000000000000000000000000000000000000000000000008152600401610b5c90611cc3565b60405180910390fd5b6000801b6002600085815260200190815260200160002060003373ffffffffffffffffffffffffffffffffffffffff1673ffffffffffffffffffffffffffffffffffffffff1681526020019081526020016000205414610bfa576040517f08c379a0000000000000000000000000000000000000000000000000000000008152600401610bf190611d2f565b60405180910390fd5b816002600085815260200190815260200160002060003373ffffffffffffffffffffffffffffffffffffffff1673ffffffffffffffffffffffffffffffffffffffff16815260200190815260200160002081905550346003600085815260200190815260200160002060003373ffffffffffffffffffffffffffffffffffffffff1673ffffffffffffffffffffffffffffffffffffffff168152602001908152602001600020819055503373ffffffffffffffffffffffffffffffffffffffff16837f0934ea4de468dcd0d9a335c5f97aa77955310c29631c93fbd01d95a00242ec4160405160405180910390a3505050565b8260016000828152602001908152602001600020600201544211610d46576040517f08c379a0000000000000000000000000000000000000000000000000000000008152600401610d3d90611d9b565b60405180910390fd5b6001600082815260200190815260200160002060030154421115610d9f576040517f08c379a0000000000000000000000000000000000000000000000000000000008152600401610d9690611e07565b60405180910390fd5b6007600085815260200190815260200160002060003373ffffffffffffffffffffffffffffffffffffffff1673ffffffffffffffffffffffffffffffffffffffff16815260200190815260200160002060009054906101000a900460ff1615610e3d576040517f08c379a0000000000000000000000000000000000000000000000000000000008152600401610e3490611e73565b60405180910390fd5b60006002600086815260200190815260200160002060003373ffffffffffffffffffffffffffffffffffffffff1673ffffffffffffffffffffffffffffffffffffffff1681526020019081526020016000205490506000801b8103610ed7576040517f08c379a0000000000000000000000000000000000000000000000000000000008152600401610ece90611edf565b60405180910390fd5b60008484604051602001610eec929190611f91565b604051602081830303815290604052805190602001209050808214610f46576040517f08c379a0000000000000000000000000000000000000000000000000000000008152600401610f3d90612005565b60405180910390fd5b6001600087815260200190815260200160002060010154851015610f9f576040517f08c379a0000000000000000000000000000000000000000000000000000000008152600401610f9690612071565b60405180910390fd5b6003600087815260200190815260200160002060003373ffffffffffffffffffffffffffffffffffffffff1673ffffffffffffffffffffffffffffffffffffffff16815260200190815260200160002054851115611032576040517f08c379a0000000000000000000000000000000000000000000000000000000008152600401611029906120dd565b60405180910390fd5b60016007600088815260200190815260200160002060003373ffffffffffffffffffffffffffffffffffffffff1673ffffffffffffffffffffffffffffffffffffffff16815260200190815260200160002060006101000a81548160ff021916908315150217905550846004600088815260200190815260200160002060003373ffffffffffffffffffffffffffffffffffffffff1673ffffffffffffffffffffffffffffffffffffffff168152602001908152602001600020819055506001600660008881526020019081526020016000206000878152602001908152602001600020600082825461112591906120fd565b9250508190555060056000878152602001908152602001600020339080600181540180825580915050600190039060005260206000200160009091909190916101000a81548173ffffffffffffffffffffffffffffffffffffffff021916908373ffffffffffffffffffffffffffffffffffffffff1602179055503373ffffffffffffffffffffffffffffffffffffffff16867f86d2fbc9069d34216ebc65b38ce840528d3f8cac0c86d2aaa7ab6a9db8bc35d3876040516111e791906115a9565b60405180910390a3505050505050565b6004602052816000526040600020602052806000526040600020600091509150505481565b600080600081548092919061123090612131565b91905055506000834261124391906120fd565b90506000838261125391906120fd565b90506040518060e001604052803373ffffffffffffffffffffffffffffffffffffffff168152602001878152602001838152602001828152602001600015158152602001600073ffffffffffffffffffffffffffffffffffffffff1681526020016000815250600160008054815260200190815260200160002060008201518160000160006101000a81548173ffffffffffffffffffffffffffffffffffffffff021916908373ffffffffffffffffffffffffffffffffffffffff16021790555060208201518160010155604082015181600201556060820151816003015560808201518160040160006101000a81548160ff02191690831515021790555060a08201518160040160016101000a81548173ffffffffffffffffffffffffffffffffffffffff021916908373ffffffffffffffffffffffffffffffffffffffff16021790555060c082015181600501559050503373ffffffffffffffffffffffffffffffffffffffff166000547f05f9bf100dd0ca9f37f08e0526690286d357ed7d6c5a4ac29730440b6e2dfd628885856040516113f393929190612179565b60405180910390a3600054925050509392505050565b6005602052816000526040600020818154811061142557600080fd5b906000526020600020016000915091509054906101000a900473ffffffffffffffffffffffffffffffffffffffff1681565b6002602052816000526040600020602052806000526040600020600091509150505481565b6000604051905090565b600080fd5b600080fd5b6000819050919050565b6114a381611490565b81146114ae57600080fd5b50565b6000813590506114c08161149a565b92915050565b600073ffffffffffffffffffffffffffffffffffffffff82169050919050565b60006114f1826114c6565b9050919050565b611501816114e6565b811461150c57600080fd5b50565b60008135905061151e816114f8565b92915050565b6000806040838503121561153b5761153a611486565b5b6000611549858286016114b1565b925050602061155a8582860161150f565b9150509250929050565b60008115159050919050565b61157981611564565b82525050565b60006020820190506115946000830184611570565b92915050565b6115a381611490565b82525050565b60006020820190506115be600083018461159a565b92915050565b600080604083850312156115db576115da611486565b5b60006115e9858286016114b1565b92505060206115fa858286016114b1565b9150509250929050565b60006020828403121561161a57611619611486565b5b6000611628848285016114b1565b91505092915050565b61163a816114e6565b82525050565b600060e082019050611655600083018a611631565b611662602083018961159a565b61166f604083018861159a565b61167c606083018761159a565b6116896080830186611570565b61169660a0830185611631565b6116a360c083018461159a565b98975050505050505050565b6000819050919050565b6116c2816116af565b81146116cd57600080fd5b50565b6000813590506116df816116b9565b92915050565b600080604083850312156116fc576116fb611486565b5b600061170a858286016114b1565b925050602061171b858286016116d0565b9150509250929050565b600080fd5b600080fd5b6000601f19601f8301169050919050565b7f4e487b7100000000000000000000000000000000000000000000000000000000600052604160045260246000fd5b6117788261172f565b810181811067ffffffffffffffff8211171561179757611796611740565b5b80604052505050565b60006117aa61147c565b90506117b6828261176f565b919050565b600067ffffffffffffffff8211156117d6576117d5611740565b5b6117df8261172f565b9050602081019050919050565b82818337600083830152505050565b600061180e611809846117bb565b6117a0565b90508281526020810184848401111561182a5761182961172a565b5b6118358482856117ec565b509392505050565b600082601f83011261185257611851611725565b5b81356118628482602086016117fb565b91505092915050565b60008060006060848603121561188457611883611486565b5b6000611892868287016114b1565b93505060206118a3868287016114b1565b925050604084013567ffffffffffffffff8111156118c4576118c361148b565b5b6118d08682870161183d565b9150509250925092565b6000806000606084860312156118f3576118f2611486565b5b6000611901868287016114b1565b9350506020611912868287016114b1565b9250506040611923868287016114b1565b9150509250925092565b60006020820190506119426000830184611631565b92915050565b611951816116af565b82525050565b600060208201905061196c6000830184611948565b92915050565b600082825260208201905092915050565b7f52657665616c207068617365206e6f7420656e64656400000000000000000000600082015250565b60006119b9601683611972565b91506119c482611983565b602082019050919050565b600060208201905081810360008301526119e8816119ac565b9050919050565b7f41756374696f6e20616c726561647920736574746c6564000000000000000000600082015250565b6000611a25601783611972565b9150611a30826119ef565b602082019050919050565b60006020820190508181036000830152611a5481611a18565b9050919050565b7f4e487b7100000000000000000000000000000000000000000000000000000000600052603260045260246000fd5b7f4e487b7100000000000000000000000000000000000000000000000000000000600052601160045260246000fd5b6000611ac482611490565b9150611acf83611490565b9250828203905081811115611ae757611ae6611a8a565b5b92915050565b600081905092915050565b50565b6000611b08600083611aed565b9150611b1382611af8565b600082019050919050565b6000611b2982611afb565b9150819050919050565b7f526566756e64206661696c656400000000000000000000000000000000000000600082015250565b6000611b69600d83611972565b9150611b7482611b33565b602082019050919050565b60006020820190508181036000830152611b9881611b5c565b9050919050565b7f53656c6c6572207472616e73666572206661696c656400000000000000000000600082015250565b6000611bd5601683611972565b9150611be082611b9f565b602082019050919050565b60006020820190508181036000830152611c0481611bc8565b9050919050565b7f436f6d6d69742070686173652068617320656e64656400000000000000000000600082015250565b6000611c41601683611972565b9150611c4c82611c0b565b602082019050919050565b60006020820190508181036000830152611c7081611c34565b9050919050565b7f4465706f73697420726571756972656400000000000000000000000000000000600082015250565b6000611cad601083611972565b9150611cb882611c77565b602082019050919050565b60006020820190508181036000830152611cdc81611ca0565b9050919050565b7f416c726561647920636f6d6d6974746564000000000000000000000000000000600082015250565b6000611d19601183611972565b9150611d2482611ce3565b602082019050919050565b60006020820190508181036000830152611d4881611d0c565b9050919050565b7f436f6d6d6974207068617365206e6f7420656e64656400000000000000000000600082015250565b6000611d85601683611972565b9150611d9082611d4f565b602082019050919050565b60006020820190508181036000830152611db481611d78565b9050919050565b7f52657665616c2070686173652068617320656e64656400000000000000000000600082015250565b6000611df1601683611972565b9150611dfc82611dbb565b602082019050919050565b60006020820190508181036000830152611e2081611de4565b9050919050565b7f416c72656164792072657665616c656400000000000000000000000000000000600082015250565b6000611e5d601083611972565b9150611e6882611e27565b602082019050919050565b60006020820190508181036000830152611e8c81611e50565b9050919050565b7f4e6f20636f6d6d69746d656e7420666f756e6400000000000000000000000000600082015250565b6000611ec9601383611972565b9150611ed482611e93565b602082019050919050565b60006020820190508181036000830152611ef881611ebc565b9050919050565b6000819050919050565b611f1a611f1582611490565b611eff565b82525050565b600081519050919050565b600081905092915050565b60005b83811015611f54578082015181840152602081019050611f39565b60008484015250505050565b6000611f6b82611f20565b611f758185611f2b565b9350611f85818560208601611f36565b80840191505092915050565b6000611f9d8285611f09565b602082019150611fad8284611f60565b91508190509392505050565b7f496e76616c69642072657665616c20736563726574206f7220616d6f756e7400600082015250565b6000611fef601f83611972565b9150611ffa82611fb9565b602082019050919050565b6000602082019050818103600083015261201e81611fe2565b9050919050565b7f4269642062656c6f77206d696e696d756d000000000000000000000000000000600082015250565b600061205b601183611972565b915061206682612025565b602082019050919050565b6000602082019050818103600083015261208a8161204e565b9050919050565b7f4269642065786365656473206465706f73697400000000000000000000000000600082015250565b60006120c7601383611972565b91506120d282612091565b602082019050919050565b600060208201905081810360008301526120f6816120ba565b9050919050565b600061210882611490565b915061211383611490565b925082820190508082111561212b5761212a611a8a565b5b92915050565b600061213c82611490565b91507fffffffffffffffffffffffffffffffffffffffffffffffffffffffffffffffff820361216e5761216d611a8a565b5b600182019050919050565b600060608201905061218e600083018661159a565b61219b602083018561159a565b6121a8604083018461159a565b94935050505056fea2646970667358221220f31cdc45b3ce40747931510b233639de58631bf2b2cfd774cb19d89fc424228c64736f6c63430008180033",
  "linkReferences": {},
  "deployedLinkReferences": {}
}